:020000040800F2
:1000000000020020810C0008811000088110000807
:10001000811000088110000881100008811000087C
:10002000811000088110000881100008310B0008C1
:10003000811000088110000881100008010C0008E0
:10004000811000088110000881100008811000084C
:10005000811000088110000881100008811000083C
:10006000811000088110000881100008110E00089E
:10007000410E0008710E0008B10E0008F10E0008D4
:10008000310F0008710F000881100008811000086E
:1000900081100008811000088110000881100008FC
:1000A00081100008811000088110000881100008EC
:1000B00081100008811000088110000881100008DC
:1000C00081100008811000088110000881100008CC
:1000D00081100008811000088110000881100008BC
:0C00E00081100008811000088110000849
:0C00EC0031020008750200080101000844
:0400F80051020008A9
:100100000A4B0B48194641F8800B0022C3F8E41053
:10011000C3F8E8100121DA6683F870205A679A67FD
:1001200083F8EC10C3F8F020704700BFE00900200E
:100130007826000800000000000000000000000019
:10014000002213B5134609212B4800F0F9FF2A4875
:1001500000F09EFF00F0ECFD00F08AFB274B2849E1
:1001600098699A6942F001029A614A6822F0E06255
:1001700042F000724A60C20758BF9A694FF4E131F9
:100180005CBF22F001029A611E4B1F481A691F4B87
:100190001A601F4A0A238DE80C00092301F060FC55
:1001A0001C4801F09DFA18481B491C4A1C4B01F0E1
:1001B00087FB01F0D5FD17481A4901F069FD4FF0A2
:1001C000FF3000F0F5F98307F9D50F4C0F482146B1
:1001D00001F05EFE202383F3118800F0F1F86068DF
:1001E000037D022B01D100F00BFA00F001F900238E
:1001F00083F31188E3E700BFAC0800200010024041
:1002000000000140200D0020E0090020F80C002033
:1002100000080140B8080020D4260008DC260008A9
:10022000E5260008480B0020000000000000000048
:10023000024B13B1024802F063B87047000000009F
:100240001123000800000000000000000000000072
:1002500010B5054C237833B9044B13B10448AFF300
:1002600000800123237010BD300800200000000032
:10027000B4350008084B10B51BB108480849AFF366
:1002800000800848036803B910BD074B002BFBD062
:10029000BDE81040184700BF00000000B43500085A
:1002A000340800203008002000000000000000009A
:1002B000844641EA000313F0030349D1403A23D3B3
:1002C0000B6803604B6843608B688360CB68C360D6
:1002D0000B6903614B6943618B698361CB69C361BE
:1002E0000B6A03624B6A43628B6A8362CB6AC362A6
:1002F0000B6B03634B6B43638B6B8363CB6BC3638E
:1003000040304031403ADBD230320BD30B680360CF
:100310004B6843608B688360CB68C36010301031DA
:10032000103AF3D20C3205D351F8043B40F8043BA9
:10033000043AF9D2043208D0D2071CBF11F8013BAD
:1003400000F8013B01D30B8803806046704700BF73
:10035000082A13D38B07B1D010F00303AED0C3F13A
:100360000403D21ADB071CBF11F8013B00F8013B64
:10037000A4D331F8023B20F8023B9FE7043AD9D3DB
:10038000013A11F8013B00F8013BF9D20B780370F8
:100390004B7843708B788370604670470000000094
:1003A000044B1B6813B9044B1B6813B1034800F0DE
:1003B000EFBE7047180D00201C0D00201A24000805
:1003C000064B10B51B68064C0BB9236813B10548E2
:1003D00000F0DEFE0123236010BD00BF180D0020D9
:1003E0001C0D00201F240008000000000000000079
:1003F000064B10B51B68064C13B92368002B02DCB2
:10040000044800F0C5FE0023236010BD180D002035
:100410001C0D002024240008000000000000000043
:10042000064B10B51B68064C002B01DD236813B189
:10043000044800F0ADFE0123236010BD180D00201C
:100440001C0D00202924000800000000000000000E
:10045000074B10B51B68074C002B02DD2368002BEF
:1004600002DC054800F094FE0023236010BD00BFAD
:10047000180D00201C0D00202E2400080000000094
:1004800010B5202383F31188084C2368002B02DB6E
:10049000074B1B6813B1074800F07AFE236801334D
:1004A0002360002383F3118810BD00BF180D0020C6
:1004B0001C0D002033240008000000000000000094
:1004C00010B5202383F31188084C2368002B02DD2C
:1004D000074B1B6813B1074800F05AFE2368013B25
:1004E0002360002383F3118810BD00BF180D002086
:1004F0001C0D00203824000800000000000000004F
:10050000054B1B68002B03DB044B1B68002B02DC34
:10051000034800F03DBE7047180D00201C0D002060
:100520003D24000800000000000000000000000062
:10053000054B1B681BB9054B1B68002B02DC0448EC
:1005400000F026BE704700BF180D00201C0D0020D3
:10055000432400080000000000000000000000002C
:1005600038B504460D46FFF7CBFF14B90C4800F030
:100570000FFE216A237D2943082B216203D1E36901
:10058000194206D138BD092B08D1E36919409942B7
:1005900004D1204600F034F80023C36138BD00BF09
:1005A0007A240008000000000000000000000000A5
:1005B0000E4B70B51D690646202383F31188FFF7A3
:1005C000FFFE2C6A344005D1EE61082000F060F88F
:1005D0002C6A34402B6A23EA04032B62FFF708FFDE
:1005E000002383F31188204670BD00BF200D00203A
:1005F000024B00225B601B609A607047200D002058
:1006000010B50446FFF77CFF237D0BB10E2B02D102
:10061000084800F0BDFD00232375A268064B1B6847
:1006200099689142FBD25A682360626020465C6000
:10063000146010BDE0240008200D00200000000020
:1006400038B50446202383F31188FFF7E9FE257DA2
:100650005DB1032D0DD1E26993680133936094E895
:100660000C001A602268536003E0FFF7F1FE2B468E
:1006700008E04FF0FF33E3612046FFF7C1FFFFF7CB
:10068000E7FE002383F3118838BD0000000000005E
:1006900038B50446FFF74CFF0D4B14221D69AA75AF
:1006A0001A682C7511681C464B6019600121117580
:1006B00029691A61ADF12402914202D9054800F07E
:1006C00067FD20692946BDE8384000F0B1BA00BF97
:1006D000200D0020F22400080000000000000000AF
:1006E00070B50E4686B00546FFF722FF731C0C4C12
:1006F0000ED0236901A831460A4A00F0C1F9284604
:10070000FFF7C6FF049B33B101A800F0E1F902E056
:100710002846FFF7BDFF2369D86906B070BD00BF4A
:10072000200D00204106000800000000000000002D
:1007300070B504460D46114EFFF7FAFE3069A26807
:100740008368E5619A4204D82046BDE87040FFF70F
:1007500057BFFFF755FF012302692375ADF124034D
:100760009A420546346102D9054800F011FD204641
:100770002946BDE8704000F05BBA00BF200D0020A4
:10078000F22400080000000000000000000000004B
:1007900038B50E4C236825691A68284654602260D3
:1007A00001221A7523611423AB75FFF729FF2A690B
:1007B000ADF124039A4202D9054800F0E9FC206912
:1007C0002946BDE8384000F033BA00BF200D0020B4
:1007D000F2240008000000000000000000000000FB
:1007E00038B5124B1D461A681C6911684B601960B8
:1007F000012111751A6100222275A2681B6899688F
:100800009142FBD85A68236062605C601460226980
:10081000ADF124039A4202D9054800F0B9FC2869D9
:100820002146BDE8384000F003BA00BF200D00208B
:10083000F22400080000000000000000000000009A
:10084000034B1B699B7D0BB9FFF7A2BFFFF7C8BF26
:10085000200D00200000000000000000000000004B
:1008600030BFFDE7000000000000000000000000B5
:1008700013B500F06DF9FFF7BBFE00F0F1F8402171
:100880000B4800F05DF80B4B012418610A4B04750E
:100890000361FFF785FD002383F3118862B6982179
:1008A00000932246054B064800F082F802B010BDC6
:1008B0004C080020200D00200002002061080008E4
:1008C000380D0020000000000000000000000000C3
:1008D000F8B5FFF715FE154B1B699A7D0AB1013A71
:1008E0009A759A6901329A61114BDA681C46013295
:1008F000DA601A689A4218D09368013B93602568C1
:100900000B4BAE688EB92A68EF68EE6053601A60D0
:10091000FFF79EFD334683F311882869B8472023EB
:1009200083F31188FFF77CFDE9E7F8BD200D002077
:10093000D00D0020000000000000000000000000BA
:1009400002220275002281604275142102628261D6
:1009500000F1240281750261704700000000000070
:100960002DE9F04104460D4616461F46DDF8188075
:10097000FFF7C6FD24B1872D02D97F2E00D817B905
:10098000084800F005FC243D074A6319E36020464F
:1009900067513146C3F804801A62BDE8F041FFF7A1
:1009A000CFBF00BF10250008410C00080000000068
:1009B000F7B51C4607460E461546202383F31188DB
:1009C000FFF7FEFC089B2A46009331462346384633
:1009D000FFF7C6FF00210446FFF7AAFEFFF708FD58
:1009E000002383F31188204603B0F0BD000000000F
:1009F00010B5044610B9094800F0CAFB202383F360
:100A00001188FFF7DDFC21460620FFF769FEFFF79E
:100A1000EFFC002383F3118810BD00BF48250008B8
:100A200008B5054B1B69D8610E20FFF731FEBDE804
:100A30000840024800F0ACBB200D002057250008FC
:100A400010B52023044683F31188FFF7B9FC204634
:100A5000BDE81040FFF7E4BF000000000000000008
:100A6000044B4FF0FF329A6000225B601B60DA603B
:100A7000704700BFD00D0020000000000000000003
:100A8000F8B504460D4616461F46FFF739FD0CB172
:100A900006B115B90C4800F07BFB0C4A27611368BE
:100AA000E6609968A94202D26D1A1B68F9E7596895
:100AB0002360616093425C600C60A5601EBF996812
:100AC000491B9960F8BD00BF70250008D00D0020BB
:100AD00010B50446FFF714FD14B90B4800F058FB9D
:100AE000E36813B9094800F053FB2368084A9342AE
:100AF0001FBF9968A26852189A60626813602368E1
:100B00005A600023E36010BD7D2500088C25000895
:100B1000D00D0020000000000000000000000000D8
:100B2000FFF74EFCFFF78CFEFFF762FC00DF0000D2
:100B3000EFF30983203383F30988002383F31188BB
:100B400070470000000000000000000000000000EE
:100B500008B50A4B00229A60094A0720DA60102182
:100B600000F03EF90A204FF4007100F039F9BDE8B9
:100B700008400B20802100F033B900BF00ED00E0F9
:100B80000003FA0500000000000000000000000063
:100B9000202383F31188144B5B6813F4006320D087
:100BA000EFF30982A2F1200383F309880F494FF084
:100BB000807342F8043C0B690968987D89689B68DA
:100BC00020B1994294BF0023012303E0994234BF2E
:100BD000002301230BB1064B00E0064B42F8083C12
:100BE000704783F31188704700ED00E0200D00206E
:100BF000210B00082C0B0008000000000000000082
:100C000008B5FFF73DFC202383F31188FFF708FCAC
:100C1000FFF75EFEFFF71CFC002383F31188FFF74C
:100C20004FFCBDE80840FFF7B3BF00000000000024
:100C30002DE9F04FC1F80CD0D0F80CD0BDE8F08F02
:100C400008B5FFF7D5FB002383F311882846A0479A
:100C5000FFF7F6FE08BD00000000000000000000E5
:100C600070470000000000000000000000000000CD
:100C7000FEE700000000000000000000000000008F
:100C800072B61D4B83F30988022282F31488BFF3E6
:100C90006F8F1A4A1A498A4204D24FF0553142F8EE
:100CA000041BF7E7174A9A4204D24FF0553142F835
:100CB000041BF8E700F05CFA134A144B14498B420A
:100CC00004D252F8041F43F8041BF7E7114B124AF1
:100CD000934203D2002243F8042BF8E7FFF7C0FF4A
:100CE0000E4C0F4B9C4203D254F8043B9847F8E754
:100CF000FFF726FAFFF7BCFF0004002000000020E9
:100D00000002002000020020B4350008000400208A
:100D10003008002030080020E00D0020EC00000822
:100D2000F8000008000000000000000000000000C3
:100D300000F006B800000000000000000000000005
:100D40000D4B00201A694FF0FF321A611861D96803
:100D5000DA600A4AD86012684FF47A71B2FBF1F295
:100D60000749013A4A60072288600A60DA6942F05E
:100D70008052DA6100F01CB900100240AC0800207B
:100D800010E000E000000000000000000000000093
:100D900020F0030303F1604303F5614300F0030215
:100DA00030B5D200D3F80053FF249440914025EA97
:100DB000040400F01F02400921438000C3F800131F
:100DC00000F160400123934000F56140C0F880319C
:100DD000036030BD000000000000000000000000C3
:100DE00020F0030303F1604310B503F56D4300F0F9
:100DF00003009C69C000FF22824024EA0202814075
:100E00001143996110BD00000000000000000000C7
:100E100008B5FFF735FB084B0F2219685A60074ADF
:100E200001F00F0113680BB150689847FFF748FBBA
:100E3000BDE80840FFF7ACBE00000240700800208B
:100E400008B5FFF71DFB084BF02219685A60074AE6
:100E5000C1F3031193680BB1D0689847FFF730FBDB
:100E6000BDE80840FFF794BE000002407008002073
:100E700008B5FFF705FB094B4FF4706219685A601B
:100E8000074AC1F3032113690BB150699847FFF773
:100E900017FBBDE80840FFF77BBE00BF0000024023
:100EA00070080020000000000000000000000000AA
:100EB00008B5FFF7E5FA094B4FF4704219685A601C
:100EC000074AC1F3033193690BB1D0699847FFF723
:100ED000F7FABDE80840FFF75BBE00BF0000024024
:100EE000700800200000000000000000000000006A
:100EF00008B5FFF7C5FA094B4FF4702219685A601C
:100F0000074AC1F30341136A0BB1506A9847FFF7D0
:100F1000D7FABDE80840FFF73BBE00BF0000024023
:100F20007008002000000000000000000000000029
:100F300008B5FFF7A5FA094B4FF4700219685A601B
:100F4000074AC1F30351936A0BB1D06A9847FFF780
:100F5000B7FABDE80840FFF71BBE00BF0000024023
:100F600070080020000000000000000000000000E9
:100F700008B5FFF785FA094B4FF0706219685A609F
:100F8000074AC1F30361136B0BB1506B9847FFF72E
:100F900097FABDE80840FFF7FBBD00BF0000024024
:100FA00070080020000000000000000000000000A9
:100FB000094A002313600C225A4308495158002261
:100FC0000A60074941F833200133072BF3D1054B61
:100FD0004FF0FF325A607047A8080020D025000863
:100FE0007008002000000240000000000000000027
:100FF0002DE9F0410F4614469846054610B91C48A5
:1010000000F0C6F8DFF874E0697ADEF800600120CD
:1010100000FA01FC1CEA060F28D1164A4CEA060326
:1010200042F83140CEF8003002EBC1025B06C2F854
:10103000048018BF104A696818BF53694FF0000652
:101040001CBF034353612B681A6822F001021A6027
:10105000287A0F2282400A601E6034B1A87A3901D2
:10106000FFF796FE3046BDE8F0812046BDE8F081EE
:10107000A02500087008002000100240A8080020E9
:10108000FEE700000000000000000000000000007B
:10109000F0B5274C87B06368054603F00C03082BB6
:1010A00014D1E26A63686168C3F383430233112B8E
:1010B00008BF1023C90341BF02F00F021D490132CE
:1010C000B1FBF2F258BF1C4A534300E0194B1B4AD4
:1010D00002AF02F1100CE6463E4610685168083235
:1010E00003C662453746F7D1626806A9C2F3031208
:1010F0000A4412F8102CDEF80410D3406A46DEF8D9
:1011000000002B6003C2626806A9C2F302220A44EF
:1011100012F8182C23FA02F26A60626802F4605234
:1011200001EB122212F8182CD340AB6007B0F0BDCF
:101130000010024000127A0000093D00F023000870
:1011400010B5074C606820F47F5020F0300040EA72
:10115000C32343EA022242EA0111616010BD00BFCD
:10116000001002400000000000000000000000002D
:10117000044B1A6842F001021A601A689207FCD503
:10118000704700BF00100240000000000000000097
:1011900002460249024800F0C3BB00BF30260008E7
:1011A000E009002000000000000000000000000036
:1011B000F0B5644685B00026B0FBF1F201FB1203E6
:1011C000092B06F1010694BF3033373301AFDBB290
:1011D000BD19104605F8013C002AEDD135462368BB
:1011E0009E420ED2227CE3680AB1302000E020202B
:1011F0009847A368626801339342A3600FD2013617
:10120000EDE7A26863689B1A9D4228BF1D462A44E9
:10121000A26025B1013DE368785D9847F9E705B024
:10122000F0BD000000000000000000000000000011
:101230002DE9F0431C4687B00023049002910393EC
:1012400001938DF814301078561C002800F09F8010
:10125000252809D0049B9847039B029A01339342A7
:101260000393C0F0928092E000221146019216F89A
:10127000013BA3F13000C5B2092D07D812B9302BBC
:1012800008BF01210A2303FB0202F0E7019203F0E9
:10129000DF02532A8DF814100FD1251D24682378FE
:1012A000002B6DD0039B5A1C0392029A934267D283
:1012B00014F8010B049B9847F1E7632B0BD1049BB7
:1012C00020789847039B029A0133934204F1040566
:1012D000039355D35BE0582B05D1251D0DF1040C6C
:1012E0002068102106E0752B07D12068251D0DF11F
:1012F000040C0A21FFF75CFF42E0642B11D1251D8D
:101300002468002C09DA049B2D209847039B029A3D
:101310000133934203933AD264420DF1040C204608
:10132000E7E7412B2BD101238DF814300223D4F8A9
:101330000080676804F10C05D4F80890019300243C
:10134000BC421DDA002C0CDC0DF1040C18F8040072
:101350001021FFF72DFF029B039A9A4210D201340D
:10136000EEE7B9F1000FEFD0049B5FFA89F09847E0
:10137000039B029A013393420393E5D300E0254691
:10138000029B039A9A4202D22C4632465BE70398AC
:1013900007B0BDE8F083000000000000000000007E
:1013A000C268836803EB820319867047000000005F
:1013B000F7B5CFB20446C1F30726C1F30745084885
:1013C0003946FFF7EDFF31460648FFF7E9FF0648CB
:1013D0002946FFF7E5FF27766676A57603B0F0BDD0
:1013E0005026000860260008402600080000000083
:1013F000036970B504460E4693B10430FFF768FBED
:101400000EE0237E16F8031C8B4236D1607E16F860
:10141000022C904231D1A07E16F8012C90422CD1A2
:101420000836A6F108053DB316F8083C032BFAD898
:1014300001A252F823F000BF031400084914000869
:101440005B14000873140008D5F801100029E7D0D8
:10145000201D474A05F1080307E0D5F8015023682D
:10146000434A201D012103EBC503BDE87040FFF78F
:1014700007BB0023236070BD70BDD5F801206AB999
:10148000A9796B79204643EA0123E97943EA0143CC
:1014900002F07F411943FFF78BFFC1E78B4201D276
:1014A000013301E001D9013B2376637E16F8022C5B
:1014B000934201D2013301E001D9013B6376A37E5F
:1014C00016F8012C934201D2013301E001D9013B0E
:1014D000A3762848217EFFF763FF2748617EFFF748
:1014E0005FFF2648A17EFFF75BFF227E16F8033CD4
:1014F000934235D1627E16F8023C9A4204D1A27E14
:1015000016F8013C9A428BD00026617EAB798B4263
:101510001EBFD5F801000431B0FBF1F2A37E18BF65
:10152000511CEA7908BF00219A421DBFD5F801007D
:101530000433B0FBF3F2002318BF531CB14238BF91
:1015400031468B4238BF0B464FF47A714B43A3F5BB
:101550007A73B3FBF1F1201D0131054A2B4684E774
:10156000D5F801600432B6FBF2F2561CCDE700BF9D
:101570008115000850260008602600084026000853
:1015800010B52023044683F31188FEF749FF054870
:101590002146FFF72DFFFEF75BFF002383F3118841
:1015A00010BD00BFB80800200000000000000000CF
:1015B000454A016830B59142838802F5843203D1EF
:1015C000946944F0040413E0404CA14203D19469AF
:1015D00044F008040CE03E4CA14203D1946944F06D
:1015E000100405E03B4CA14203D1946944F020046F
:1015F00094619469072B44F0010494610ED89B0018
:101600000D68DBB20F249C4025EA04040C600C68D2
:101610000B2505FA03F323430B600EE0083B9B0008
:101620004D68DBB20F249C4025EA04044C604C68F2
:101630000B2505FA03F323434B608368B3F1804F16
:1016400003D1D16941F0010105E023498B4203D167
:10165000D16941F00201D16101221A8000229A80F1
:10166000FF229A85C268013A032A2BD8DFE802F0EC
:10167000020C16201A8B92B242F060021A831A8C66
:1016800092B242F001021CE01A8B92B242F4C042C4
:101690001A831A8C92B242F0100212E09A8B92B224
:1016A00042F060029A831A8C92B242F4807208E08F
:1016B0009A8B92B242F4C0429A831A8C92B242F44C
:1016C00080521A8430BD00BF00080140000C014068
:1016D0000010014000140140000400400000000020
:1016E00013B504460A48FFF763FF0A48FFF760FF97
:1016F0000948FFF75DFF00238DF804308DF80530B1
:101700008DF8063020460199FFF752FE02B010BD59
:10171000502600086026000840260008000000004F
:10172000044B1A881106FBD580B298801A881206DD
:10173000FCD57047003801400000000000000000A8
:10174000104B984204D1104A936943F0040316E009
:101750000E4B984204D10C4A936943F008030EE003
:101760000B4B984204D1084A936943F0100306E0FA
:10177000084B984204D1044A936943F020039361D3
:10178000704700BF0008014000100240000C0140FB
:1017900000100140001401400000000000000000A3
:1017A000D0F8E8305A1CC0F8E8201970D0F8E820CA
:1017B00000F1E3039A4224BF00F18003C0F8E8304F
:1017C0007047000000000000000000000000000062
:1017D00001460148FFF7E4BFE009002000000000D7
:1017E000D0F8E410D0F8F03000F1E302521A9A4237
:1017F00028BF1A46C0F8F42062B1002380F8EC300C
:10180000054B5B6AD9605A6092221A601A6842F0EE
:1018100001021A60704700BFD025000800000000D8
:10182000124B596A0A6822F001020A6093F82C10E0
:101830009A6A0F238B401360D0F8E410D0F8F4308C
:10184000D0F8F020D21A0B4400F1E3018B4228BFFC
:1018500000F18003C0F8F020C0F8E4301AB9012389
:1018600080F8EC307047FFF7BBBF00BFD025000801
:101870000148FFF7D5BF00BFE009002000000000CD
:1018800038B50D46D0F8F010044613460948C1F1AA
:1018900063012A46FFF7CCFCD4F8F030184494F8E2
:1018A000EC30C4F8F00023B12046BDE83840FFF723
:1018B00097BF38BDD11700080000000000000000ED
:1018C0000EB477B507AC064654F8045B202383F3C7
:1018D0001188FEF775FD3046294622460194FFF730
:1018E000CFFFFEF785FD002383F3118803B0BDE829
:1018F000704003B0704700000000000000000000CE
:101900000EB403B503AA52F8041B0192FFF7B8FF07
:1019100002B05DF804EB03B0704700000000000067
:101920000EB403B503AB53F8042B054905480193E6
:10193000FFF77EFC02B05DF804EB03B0704700BF18
:101940009F86010021170008000000000000000031
:10195000044680B56320FFF74BF8304BD4F8F850BD
:101960001B6B5B68C3F16303AB42F3D05D1B48BFE5
:101970006335C4F8F8300026AE42EBDAD4F8FC3018
:101980005A1C622AC4F8FC202344C8BF002293F8E2
:101990000031C8BFC4F8FC2094F8702032B1002296
:1019A000082B84F87020E26635D132E0082B04D190
:1019B000E36E73B3013BE3662BE00D2B01D00A2BE2
:1019C00020D1E36E2BB3234400271F7204F10800DB
:1019D000134900F0B5FB012384F8703060672023C1
:1019E00083F31188FEF7ECFC0E4B02211868FEF71A
:1019F000B7FD0220FEF74CFEFEF7FAFC3B4683F3F0
:101A0000118806E0E26E612A9FBF511C1219E1663F
:101A100013720136B0E70D2BD1D1FAE7D0250008BB
:101A200080260008F80C00200000000000000000E4
:101A300008B50148FFF78CFFE00900200000000016
:101A4000044BC26F9B68B3FBF2F3034A9BB2138152
:101A5000704700BFAC0800200038014000000000C3
:101A60002DE9F3471D4607461046914688460A9ED3
:101A7000BDF82C40FFF764FE4E4B072D9A6942F0EB
:101A800001029A6111D8AD00D9F80010EDB20F2211
:101A9000AA4021EA0202C9F80020D9F800100B225E
:101AA000AA400A43C9F8002011E0083DAD00D9F86A
:101AB0000410EDB20F22AA4021EA0202C9F8042064
:101AC000D9F804100B22AA400A43C9F80420C7F829
:101AD0007C809A69384D42F480429A613846FFF71B
:101AE000AFFFDFF8EC8000232B820921334A344812
:101AF000FFF77EFADFF8DCA0D8F824309222C3F892
:101B000008A04FF001091A600C2387F8EC90AB8114
:101B1000C023AB823046FFF713FEF36809FA04F9DD
:101B200049EA0303072CF36055460DD8A400326838
:101B3000E4B20F23A34022EA030333603268082390
:101B4000A340134333600DE0083CA4007268E4B284
:101B50000F23A34022EA0303736072680823A340A3
:101B600013437360002213460F211648FFF740FA13
:101B7000D8F8303007F580729D60DA6063225A60D1
:101B80004FF485521A601A684FF4847142F00102D2
:101B90001A600023009302220B4B0C48FEF708FF4B
:101BA000054A786093899BB243F40053938102B055
:101BB000BDE8F087001002400038014071180008AD
:101BC000F425000800260008311A0008D808002073
:101BD000D02500080438014000000000000000008B
:101BE00010B505490446002000F0AAFA20600078EC
:101BF000B0FA80F0400910BD802600080000000007
:101C000037B5044670300D46FFF7EAFF024670B95B
:101C1000206F037853B101A900F062FB019B28609B
:101C20001B78002B0CBF00200B2000E00A2003B023
:101C300030BD0000000000000000000000000000B7
:101C400037B5044670300D46FFF7CAFF024670B93B
:101C5000206F03783BB101A900F042FB019B1A7889
:101C60001AB9287003E00A2002E00B2000E01046B9
:101C700003B030BD000000000000000000000000C4
:101C800003680A461B680149184700BF90260008F0
:101C900038B505460C46202383F31188FEF790FBE8
:101CA000284621462C60FFF7A3FBFEF7A1FB00238B
:101CB00083F3118838BD0000000000000000000020
:101CC00038B50546202383F31188FEF779FB2B698D
:101CD00013B1281DFEF7FCFE074B00241C809C80DE
:101CE00023F8044C2C766C76AC76FEF781FB234609
:101CF00083F3118838BD00BF3C00004000000000A5
:101D000008B5202383F31188FEF75AFB0548C36802
:101D10000BB1FEF7DDFEFEF76BFB002383F31188AA
:101D200008BD00BF000D0020000000000000000002
:101D300008B5202383F31188FEF742FB064842F2E0
:101D40000F71064A0023FEF79BFEFEF751FB0023AE
:101D500083F3118808BD00BF000D0020E1200008BA
:101D600008B503494FF4DA720248FEF7A1FA08BD3C
:101D700000340008440B00200000000000000000B8
:101D8000034B044A5A6002F188325A60704700BF20
:101D90000020024023016745000000000000000011
:101DA000024A136943F08003136170470020024028
:101DB000074BDA68D10706D4DA68520705D4D86829
:101DC000C0F300107047032070470120704700BF28
:101DD00000200240000000000000000000000000A1
:101DE00010B50446FFF7E4FF032804F1FF3403D1E4
:101DF000002CF7D1022010BD002C08BF022010BD1E
:101E000038B505464FF43020FFF7EAFF90B90A4C89
:101E10004FF43020236943F0020323616561236995
:101E200043F040032361FFF7DBFF41F6FD732269B6
:101E30001340236138BD00BF0020024000000000B5
:101E400070B506464FF400500D46FFF7C9FFB0B914
:101E50000B4C4FF40050236943F001032361ABB2F4
:101E60003380FFF7BDFF28B92D0C75804FF400506B
:101E7000FFF7B6FF41F6FE7322691340236170BD80
:101E800000200240000000000000000000000000F0
:101E9000F7B54D6F0E462846634900F031F901460B
:101EA00008B96248BBE02846614900F029F90028DA
:101EB00039D1604D04462E4633685E499C422BD290
:101EC0002B79012B15D006D3022B1AD101EBC403B9
:101ED0005648594911E0E87A6A7AAB7A01EBC401B5
:101EE0000090D1F80510514801915449FFF7E8FCE2
:101EF00007E001EBC4034D485149D3F80520FFF733
:101F0000DFFC3368013B9C4203D048484D49FFF752
:101F1000D7FC01340835CFE744484B4903B0BDE84E
:101F2000F040FFF7CDBC2846484900F0E9F80546E7
:101F3000002872D13F4CFFF7E3FE4548FFF7C0FE93
:101F400006F10807256006F17800FFF749FE002832
:101F50004FD1B06F3F4900F0D3F810BB25686B1C20
:101F600004EBC505287105F1090138462360FFF728
:101F700067FE10B12D48072151E0384605F10A01EE
:101F8000FFF75EFE0028F5D1384605F10B01FFF79B
:101F900057FE0028EED13846691DFFF731FE0028B4
:101FA000E8D1B06F2C4900F0ABF860B92168384631
:101FB0004B1C236004EBC10101230B710531FFF7BA
:101FC0001FFE0028D6D1B06F244900F099F860B9FF
:101FD000216838464B1C236004EBC10102230B71BE
:101FE0000531FFF70DFE0028C4D12368332BAAD991
:101FF000C0E7236816485A1C226004EBC30403237D
:1020000023711749FFF744FE08480021FFF738FE07
:1020100003B0BDE8F040FFF78BBE04480921FFF78D
:102020002FFE03B0F0BD00BF99260008E009002094
:102030009E260008440B0020BA260008A2260008AD
:10204000B22600088126000896260008C22600084D
:10205000B8080020C6260008CA260008CF260008B7
:10206000480B0020000000000000000000000000FD
:1020700010B5FFF785FE124B3422DA601148FFF7E6
:10208000BFFE10B11048114909E004460D48104B3D
:102090002044E158FFF7D4FE28B10B480D49BDE8B4
:1020A0001040FFF70DBC0434B4F5DA7FEED1FFF732
:1020B00077FEBDE8104004480749FFF721BC00BF88
:1020C0000020024000340008E0090020FA26000841
:1020D000440B00200F270008242700080000000000
:1020E00008B5202383F31188FEF79AF9FFF7C0FFA4
:1020F000FEF7AEF9002383F3118808BD000000004D
:102100000E4B30B41D6802E09B1A14D19AB110F83E
:10211000013BEA18527802F00302012A11F8012B60
:1021200008BF2033AC18647804F00304012CEBD111
:1021300020329B1AEBD0184630BC70472C08002088
:10214000024A012312685C3200F002B8280800201D
:10215000F0B420B307460D4617F8016B01E0A64224
:1021600016D015F8014B002CF9D1EEB13E460C46C5
:1021700016F8015B00E073B114F8013BAB42FAD1F1
:102180005DB100233B70166006463046F0BC7047D8
:1021900063B13846DEE73746E8E72E46F3E71068D6
:1021A0000028D7D10646F0E71660EEE7176006462E
:1021B0000370EAE7000000000000000000000000DB
:1021C0002DE9F04F444C83460E46D4F800E000E081
:1021D0002646344614F8015B0EEB0500407800F00B
:1021E000080000F0FF080028F2D12D2D4BD02B2D38
:1021F00004BF7578B41C1BB1102B60D09A4603E065
:10220000302D54D00A239A46B8F1000F14BF4FF076
:1022100000406FF00040B0FBFAF90027BC460AFB13
:1022200019000CE0303DAB4219DD7E1C05D0CC45D9
:1022300024D821D00AFB0C5C012714F8015B0EEBBB
:102240000506767816F0040FECD116F0030606D0DA
:10225000012E0CBF37265726AD1BAB42E5DC7B1C9D
:1022600016D0C8F100008CEA000040444AB107B122
:10227000611E1160BDE8F08F8542DBDD4FF0FF3756
:10228000DBE7BDE8F08FB41C75784FF00108B2E7CA
:10229000B8F1000F4FF0220314BF4FF000406FF071
:1022A0000040CBF80030002AE2D1BDE8F08F23785F
:1022B00003F0DF03582B09D008239A46A4E7302DFA
:1022C0009CD1207800F0DF00582897D14FF0100AF9
:1022D00065785346023497E72C0800200000000080
:1022E00030B40D46034C134601462A46206830BCE4
:1022F000FFF766BF28080020000000000000000073
:10230000014600200246034600F01AB80000000013
:1023100038B5084B084DED1AAC1018BFED1805D0B4
:10232000013C55F8043D9847002CF9D1BDE83840F0
:1023300000F090BAF8000008FC000008000000005F
:102340002DE9F047254C064625688846D5F84841D2
:1023500092469946C4B360681F2817DC411C76B1C9
:1023600004EB8003C3F888A0D4F88851012282408E
:102370001543022EC4F88851C3F808911ED0831C5F
:102380006160002044F82380BDE8F087144B03B35C
:102390004FF4C870AFF300800446D0B1D5F848318F
:1023A000002784E888003846C5F848410121C4F870
:1023B0008871C4F88C71002EE1D0D1E7D4F88C314B
:1023C0001A43C4F88C21DAE705F5A674C5F848412C
:1023D000C1E74FF0FF30BDE8F08700BF402700089D
:1023E00000000000000000000000000000000000ED
:1023F00000000000000000000102030406070809B5
:1024000000000000010203040000000000000000C2
:10241000535623310053562332005356233300536F
:102420005623340053562335005356233600535653
:10243000233700535623380053562339005356236D
:1024400031300053562331310000000000000000FD
:1024500022636845767452656769737465724D616D
:10246000736B22282900226368457674556E726565
:10247000676973746572222829002263684576743F
:102480005369676E616C492228290022636845768A
:102490007442726F6164636173744D61736B49223E
:1024A0002829002263684576745369676E616C223F
:1024B00028290022636845767444697370617463E7
:1024C00068222829006368457674446973706174D2
:1024D000636828292C202331000000000000000040
:1024E000636853636852656164794928292C202305
:1024F0003100737461636B206F766572666C6F7701
:1025000000000000000000000000000000000000CB
:10251000226368546864437265617465492228299E
:10252000002263685468645365745072696F7269FD
:102530007479222829006368546864526573756D44
:102540006528292C20233100226368546864536C69
:102550006565702228290063685468644578697449
:102560005328292C20233100000000000000000027
:1025700022636856545365744922282900226368EF
:10258000565452657365744922282900636856546D
:1025900052657365744928292C20233100000000FE
:1025A00022646D61416C6C6F63617465222829003F
:1025B00022646D6152656C6561736522282900642F
:1025C0006D6152656C6561736528292C202331008B
:1025D000080002400400024000000B001C00024002
:1025E0000400024004010C003000024004000240DC
:1025F00008020D0044000240040002400C030E00DB
:10260000580002400400024010040F006C00024019
:102610000400024014051000800002400400024043
:10262000180611000000000000000000000000007B
:102630000D25530D00000000000000000000000008
:1026400000080140010000000000004002000000FE
:1026500000080140020000000000004003000000EC
:1026600000080140030000000000004004000000DA
:102670000000000000000000C11800080000000079
:10268000202C0000000000000000000000000000FE
:1026900041636B2025640D0A0050696E6700476531
:1026A00074005247422C25752C25752C25752C2538
:1026B0007500576169742C257500476F746F2C2560
:1026C00075005365740052474200576169740047B2
:1026D0006F746F000D25532025530D0046697265F8
:1026E000666C7933004665622032352032303136EF
:1026F0002032333A32323A3335002020466C61734F
:1027000068206572617365206572726F720D0020BA
:1027100020466C61736820777269746520657272F7
:102720006F720D000D0A53617665640000000000B1
:102730004300000000000000000000000000000056
:102740000004002000000000000000000000000065
:102750000020202020202020202028282828282071
:102760002020202020202020202020202020202069
:1027700020881010101010101010101010101010D1
:1027800010040404040404040404041010101010C1
:10279000101041414141414101010101010101018B
:1027A00001010101010101010101010110101010DD
:1027B000101042424242424202020202020202025D
:1027C00002020202020202020202020210101010B1
:1027D00020000000000000000000000000000000D9
:1027E00000000000000000000000000000000000E9
:1027F00000000000000000000000000000000000D9
:1028000000000000000000000000000000000000C8
:1028100000000000000000000000000000000000B8
:1028200000000000000000000000000000000000A8
:102830000000000000000000000000000000000098
:102840000000000000000000000000000000000088
:012850000087
:04285400F8B500BF14
:1034000007000000000000000004000001C20100ED
:1034100000000000000000000000040001C20100E4
:1034200000000000000000000000000401C20100D4
:10343000000000000200000000000000000000008A
:10344000000000000000000000000000000000007C
:10345000000000000000000000000000000000006C
:10346000000000000000000000000000000000005C
:10347000000000000000000000000000000000004C
:10348000000000000000000000000000000000003C
:10349000000000000000000000000000000000002C
:1034A000000000000000000000000000000000001C
:1034B000000000000000000000000000000000000C
:1034C00000000000000000000000000000000000FC
:1034D00000000000000000000000000000000000EC
:1034E00000000000000000000000000000000000DC
:1034F00000000000000000000000000000000000CC
:1035000000000000000000000000000000000000BB
:1035100000000000000000000000000000000000AB
:10352000000000000000000000000000000000009B
:10353000000000000000000000000000000000008B
:10354000000000000000000000000000000000007B
:10355000000000000000000000000000000000006B
:10356000000000000000000000000000000000005B
:10357000000000000000000000000000000000004B
:10358000000000000000000000000000000000003B
:10359000000000000000000000000000000000002B
:1035A000000000000000000000000000000000001B
:0435B0000000000017
:1035B80000000000EC06002054070020BC07002093
:1035C80000000000000000000000000000000000F3
:1035D80000000000000000000000000000000000E3
:1035E8000000000030270008000000000000000074
:1035F80000000000000000000000000000000000C3
:1036080000000000000000000000000000000000B2
:1036180000000000000000000000000000000000A2
:103628000000000000000000000000000000000092
:103638000000000000000000000000000000000082
:103648000000000000000000000000000000000072
:103658000000000000000000010000000000000061
:103668000E33CDAB34126DE6ECDE05000B00000026
:103678000000000000000000000000000000000042
:103688000000000000000000000000000000000032
:103698000000000000000000000000000000000022
:1036A8000000000000000000000000000000000012
:1039D800000000000000000000040020502700083C
:0400000508000C8162
:00000001FF
